:020000040800F2
:100000000050002071480008B7480008C3480008A5
:10001000CB480008D3480008DB4800080000000077
:10002000000000000000000000000000E34800089D
:10003000EF48000800000000FB4800084D0D0008D4
:10004000B5480008B5480008B5480008B54800089C
:10005000B5480008B5480008B5480008B54800088C
:10006000B5480008B5480008B5480008B54800087C
:10007000B5480008B5480008B5480008B54800086C
:10008000B5480008B5480008B54800080749000809
:1000900013490008B5480008B5480008B5480008ED
:1000A000B5480008B5480008B5480008B54800083C
:1000B000B5480008B5480008B5480008B54800082C
:1000C000B5480008B5480008B5480008B54800081C
:1000D000B548000831490008B5480008B54800088F
:1000E000B5480008B54800081F4900080000000096
:1000F0000000000000000000000000000000000000
:0C01000000000000000000005FF808F1A3
:1001100010B5054C237833B9044B13B10448AFF341
:1001200000800123237010BD440100200000000066
:100130008057000808B5034B1BB103490348AFF3D0
:10014000008008BD00000000480100208057000822
:1001500081F0004102E000BF83F0004330B54FEA78
:1001600041044FEA430594EA050F08BF90EA020FE5
:100170001FBF54EA000C55EA020C7FEA645C7FEA78
:10018000655C00F0E2804FEA5454D4EB5555B8BF9B
:100190006D420CDD2C4480EA020281EA030382EA0C
:1001A000000083EA010180EA020281EA0303362D9E
:1001B00088BF30BD11F0004F4FEA01314FF4801C71
:1001C0004CEA113102D0404261EB410113F0004F83
:1001D0004FEA03334CEA133302D0524263EB43033A
:1001E00094EA050F00F0A780A4F10104D5F1200ED8
:1001F0000DDB02FA0EFC22FA05F2801841F1000133
:1002000003FA0EF2801843FA05F359410EE0A5F106
:1002100020050EF1200E012A03FA0EFC28BF4CF037
:10022000020C43FA05F3C01851EBE37101F00045ED
:1002300007D54FF0000EDCF1000C7EEB00006EEBFA
:100240000101B1F5801F1BD3B1F5001F0CD3490884
:100250005FEA30004FEA3C0C04F101044FEA4452DB
:1002600012F5800F80F09A80BCF1004F08BF5FEA62
:10027000500C50F1000041EB045141EA050130BD42
:100280005FEA4C0C404141EB0101013C28BFB1F554
:10029000801FE9D291F0000F04BF01460020B1FA9F
:1002A00081F308BF2033A3F10B03B3F120020CDA72
:1002B0000C3208DD02F1140CC2F10C0201FA0CF050
:1002C00021FA02F10CE002F11402D8BFC2F1200CB5
:1002D00001FA02F120FA0CFCDCBF41EA0C0190406B
:1002E000E41AA2BF01EB0451294330BD6FEA0404B4
:1002F0001F3C1CDA0C340EDC04F11404C4F120029F
:1003000020FA04F001FA02F340EA030021FA04F3B0
:1003100045EA030130BDC4F10C04C4F1200220FA07
:1003200002F001FA04F340EA0300294630BD21FA45
:1003300004F0294630BD94F0000F83F4801306BF0B
:1003400081F480110134013D4EE77FEA645C18BFFF
:100350007FEA655C29D094EA050F08BF90EA020F96
:1003600005D054EA000C04BF1946104630BD91EA8E
:10037000030F1EBF0021002030BD5FEA545C05D191
:100380004000494128BF41F0004130BD14F58004D0
:100390003CBF01F5801130BD01F0004545F0FE4144
:1003A00041F470014FF0000030BD7FEA645C1ABF79
:1003B000194610467FEA655C1CBF0B46024650EAB0
:1003C000013406BF52EA033591EA030F41F40021DC
:1003D00030BD00BF90F0000F04BF0021704730B562
:1003E0004FF4806404F132044FF000054FF0000137
:1003F00050E700BF90F0000F04BF0021704730B5F8
:100400004FF4806404F1320410F0004548BF4042CC
:100410004FF000013EE700BF42004FEAE2014FEA21
:1004200031014FEA02701FBF12F07F4393F07F4FFC
:1004300081F06051704732F07F4208BF704793F0FF
:100440007F4F04BF41F40021704730B54FF4607412
:1004500001F0004521F000411CE700BF50EA010215
:1004600008BF704730B54FF000050AE050EA0102BE
:1004700008BF704730B511F0004502D5404261EB2E
:1004800041014FF4806404F132045FEA915C3FF46F
:10049000D8AE4FF003025FEADC0C18BF03325FEA0C
:1004A000DC0C18BF033202EBDC02C2F1200300FABD
:1004B00003FC20FA02F001FA03FE40EA0E0021FAE2
:1004C00002F11444BDE600BF70B54FF0FF0C4CF4D0
:1004D000E06C1CEA11541DBF1CEA135594EA0C0F82
:1004E00095EA0C0F00F0DEF82C4481EA030621EABD
:1004F0004C5123EA4C5350EA013518BF52EA0335F8
:1005000041F4801143F4801338D0A0FB02CE4FF0A9
:100510000005E1FB02E506F00042E0FB03E54FF0D9
:100520000006E1FB03569CF0000F18BF4EF0010ED1
:10053000A4F1FF04B6F5007F64F5407404D25FEACD
:100540004E0E6D4146EB060642EAC62141EA555180
:100550004FEAC52040EA5E504FEACE2EB4F1FD0CC2
:1005600088BFBCF5E06F1ED8BEF1004F08BF5FEA40
:10057000500E50F1000041EB045170BD06F00046F2
:1005800046EA010140EA020081EA0301B4EB5C049F
:10059000C2BFD4EB0C0541EA045170BD41F4801197
:1005A0004FF0000E013C00F3AB8014F1360FDEBFBC
:1005B000002001F0004170BDC4F10004203C35DA98
:1005C0000C341BDC04F11404C4F1200500FA05F31B
:1005D00020FA04F001FA05F240EA020001F00042BC
:1005E00021F0004110EBD37021FA04F642EB060132
:1005F0005EEA430E08BF20EAD37070BDC4F10C045C
:10060000C4F1200500FA04F320FA05F001FA04F21F
:1006100040EA020001F0004110EBD37041F100010B
:100620005EEA430E08BF20EAD37070BDC4F1200516
:1006300000FA05F24EEA020E20FA04F301FA05F27E
:1006400043EA020321FA04F001F0004121FA04F226
:1006500020EA020000EBD3705EEA430E08BF20EAF6
:10066000D37070BD94F0000F0FD101F00046400030
:1006700041EB010111F4801F08BF013CF7D041EAB2
:10068000060195F0000F18BF704703F000465200B6
:1006900043EB030313F4801F08BF013DF7D043EA87
:1006A0000603704794EA0C0F0CEA135518BF95EA3D
:1006B0000C0F0CD050EA410618BF52EA4306D1D1C4
:1006C00081EA030101F000414FF0000070BD50EAE3
:1006D000410606BF1046194652EA430619D094EA6D
:1006E0000C0F02D150EA013613D195EA0C0F05D157
:1006F00052EA03361CBF104619460AD181EA0301AB
:1007000001F0004141F0FE4141F470014FF0000062
:1007100070BD41F0FE4141F4780170BD70B54FF0FD
:10072000FF0C4CF4E06C1CEA11541DBF1CEA13557D
:1007300094EA0C0F95EA0C0F00F0A7F8A4EB05045F
:1007400081EA030E52EA03354FEA013100F0888056
:100750004FEA03334FF0805545EA131343EA12631F
:100760004FEA022245EA111545EA10654FEA0026D4
:100770000EF000419D4208BF964244F1FD0404F58D
:10078000407402D25B084FEA3202B61A65EB0305E9
:100790005B084FEA32024FF480104FF4002CB6EBA6
:1007A000020E75EB030E22BFB61A754640EA0C0026
:1007B0005B084FEA3202B6EB020E75EB030E22BF66
:1007C000B61A754640EA5C005B084FEA3202B6EBA7
:1007D000020E75EB030E22BFB61A754640EA9C0066
:1007E0005B084FEA3202B6EB020E75EB030E22BF36
:1007F000B61A754640EADC0055EA060E18D04FEAF4
:10080000051545EA16754FEA06164FEAC30343EA93
:1008100052734FEAC2025FEA1C1CC0D111F4801F60
:100820000BD141EA00014FF000004FF0004CB6E759
:1008300011F4801F04BF01430020B4F1FD0C88BFF8
:10084000BCF5E06F3FF6AFAEB5EB030C04BFB6EB03
:10085000020C5FEA500C50F1000041EB045170BDF6
:100860000EF0004E4EEA113114EB5C04C2BFD4EB23
:100870000C0541EA045170BD41F480114FF0000EA7
:10088000013C90E645EA060E8DE60CEA135594EA23
:100890000C0F08BF95EA0C0F3FF43BAF94EA0C0F26
:1008A0000AD150EA01347FF434AF95EA0C0F7FF49B
:1008B00025AF104619462CE795EA0C0F06D152EAEF
:1008C00003353FF4FDAE1046194622E750EA4106D3
:1008D00018BF52EA43067FF4C5AE50EA41047FF4E4
:1008E0000DAF52EA43057FF4EBAE12E74FF0FF3C49
:1008F00006E000BF4FF0010C02E000BF4FF0010C1A
:100900004DF804CD4FEA410C7FEA6C5C4FEA430C92
:1009100018BF7FEA6C5C1BD001B050EA410C0CBFE1
:1009200052EA430C91EA030F02BF90EA020F002043
:10093000704710F1000F91EA030F58BF994208BFAA
:1009400090422CBFD8176FEAE37040F00100704767
:100950004FEA410C7FEA6C5C02D150EA013C07D1BE
:100960004FEA430C7FEA6C5CD6D152EA033CD3D009
:100970005DF8040B704700BF8446104662468C4603
:100980001946634600E000BF01B5FFF7B7FF002836
:1009900048BF10F1000F01BD4DF808EDFFF7F4FF5F
:1009A0000CBF012000205DF808FB00BF4DF808EDEA
:1009B000FFF7EAFF34BF012000205DF808FB00BF0D
:1009C0004DF808EDFFF7E0FF94BF012000205DF82F
:1009D00008FB00BF4DF808EDFFF7CEFF94BF0120E4
:1009E00000205DF808FB00BF4DF808EDFFF7C4FFDD
:1009F00034BF012000205DF808FB00BF4FEA410230
:100A0000B2F1E04324BFB3F5001CDCF1FE5C0DD96C
:100A100001F0004C4FEAC0024CEA5070B2F1004FB6
:100A200040EB830008BF20F00100704711F0804FB9
:100A300021D113F13872BCBF01F00040704741F47E
:100A400080114FEA5252C2F11802C2F1200C10FA82
:100A50000CF320FA02F018BF40F001004FEAC12366
:100A60004FEAD32303FA0CFC40EA0C0023FA02F30A
:100A70004FEA4303CCE77FEA625307D150EA0133E0
:100A80001EBF4FF0FE4040F44000704701F00040B0
:100A900040F0FE4040F40000704700BF80B586B0D3
:100AA00000AF01214FF4017003F0D2FC06233B801C
:100AB0000023FB703B461946184803F0A3FA0023B5
:100AC0007B6001233B7200237B724FF46023FB6049
:100AD00000233B6101233B753B1D1946104803F081
:100AE0004FF801210E4803F09DF80D4803F0B5F8CA
:100AF00000BF0B4803F0C0F80346002BF9D10848AB
:100B000003F0D1F800BF064803F0DCF80346002BE1
:100B1000F9D100BF00BF1837BD4680BD00080140B5
:100B20000024014080B582B000AF0346FB71F97923
:100B300005230122054803F0F7F80121034803F0DB
:100B4000D8F800BF0837BD4680BD00BF0024014073
:100B500080B582B000AF0121102003F079FC0121A3
:100B6000082003F075FC4FF40053BB800223BB71D7
:100B70001023FB713B1D19460F4803F043FA4FF455
:100B80000053BB800223BB711023FB713B1D194630
:100B90000A4803F037FA4FF40043BB800223BB71CD
:100BA0001023FB713B1D1946044803F02BFA00BFCC
:100BB0000837BD4680BD00BF00100140000C014059
:100BC00080B500AFFFF7C4FF0A4B4FF400525A61E3
:100BD000094B4FF400525A61074B4FF400421A611F
:100BE000064B1B78002B03D0034B4FF400425A6195
:100BF00000BF80BD00100140000C01401003002028
:100C000080B483B000AF78607B681B68002B05DD83
:100C10007B681B685A1E7B681A600FE00A4B4FF412
:100C200000525A61094B4FF400525A61084B1B782D
:100C3000002B03D0054B4FF400425A6100BF0C3724
:100C4000BD4680BC704700BF00100140000C014051
:100C50001003002080B483B000AF78603960104B7F
:100C60004FF400521A610F4B4FF400521A610E4BB1
:100C70001B78002B03D00B4B4FF400421A610B4B37
:100C80001B683A6802FB03F3094AA2FB03239B0992
:100C90001A467B681A6000BF0C37BD4680BC70479F
:100CA00000100140000C014010030020180000203B
:100CB000D34D621080B483B000AF03463960FB713E
:100CC00097F90730002B0BDA3B68DAB20C49FB7955
:100CD00003F00F03043B1201D2B20B441A7609E071
:100CE0003B68DAB2074997F907301201D2B20B44D8
:100CF00083F8002300BF0C37BD4680BC704700BF9F
:100D000000ED00E000E100E080B582B000AF786067
:100D10007B68B3F1807F01D3012311E07B6823F06E
:100D20007F43094A013B53600F214FF0FF30FFF72B
:100D3000C1FF054B00229A60034B07221A60002373
:100D400018460837BD4680BD10E000E080B400AF13
:100D5000044B1B680133034A136000BFBD4680BCCF
:100D6000704700BF6801002080B500AF0D4B1B68C5
:100D70000D4AA2FB03239B0C0C4A1360094B1B6812
:100D80000B4AA2FB03239B090A4A1360094B1B6809
:100D90001846FFF7B9FF00214FF0FF30FFF78AFF39
:100DA00000BF80BD1800002083DE1B4360010020CF
:100DB000D34D62106401002080B400AF024B1B6869
:100DC0001846BD4680BC70476801002080B582B0DF
:100DD00000AF0346FB80FB88002B05D1084B1B6846
:100DE00001221A82002306E0064B1B681B68984705
:100DF000034B1B680A3318460837BD4680BD00BF49
:100E0000700100209801002080B500AF0F4B1B68D7
:100E1000DA780F4B5B789A4215D80C4B1B689B789D
:100E2000002B10D1094B1B689B88002B0BD1074B63
:100E30001A68064B1B68D2789A72064B1B685B686F
:100E40009847002300E00223184680BD700100206F
:100E50008C0000209801002080B582B000AF0346CE
:100E6000FB80FB88002B05D1084B1B6801221A82EE
:100E7000002306E0064B1B689B689847034B1B68E2
:100E80000C3318460837BD4680BD00BF70010020F6
:100E90009801002080B582B000AF1D4B1B689B6994
:100EA0001C4A126850791B4A1268D278114698473A
:100EB0000346FB71174B1B689B7A002B23D0FB79F1
:100EC000002B09D1134B1B681B79002B04D1114B4C
:100ED0001B689B78002B01D0022315E0FB79002BC7
:100EE00011D10D4B1B68DB6898470A4B1A68094BF8
:100EF0001B685279DA72074B1A68064B1B68D27866
:100F00001A73002300E0022318460837BD4680BD4F
:100F100074010020700100209801002080B584B089
:100F200000AF0346FB80FB88002B05D1464B1B68B6
:100F300002221A82002382E0444B00221A80424B94
:100F40001B681B7803F07F03002B2CD13E4B1B68E2
:100F50005B7A7B737B7B03F02003002B07D03B4B3A
:100F60001B7843F00203DAB2384B1A7006E0374BB5
:100F70001B7823F00203DAB2344B1A707B7B03F048
:100F80004003002B07D0314B1B7843F00103DAB24A
:100F90002E4B1A704EE02D4B1B7823F00103DAB272
:100FA0002A4B1A7046E0284B1B681B7803F07F031E
:100FB000012B01D1254B42E0234B1B681B7803F02A
:100FC0007F03022B34D1204B1B685B79FB73FB7BC7
:100FD00003F00F03BB7397F90F30002B13DABB7BC1
:100FE0009B0003F1804303F5B8431B689BB203F0F9
:100FF0003003102B1ED1154B1B7843F00103DAB2DE
:10100000124B1A7016E0BB7B9B0003F1804303F583
:10101000B8431B689BB203F44053B3F5805F09D11A
:101020000A4B1B7843F00103DAB2084B1A7001E057
:10103000002304E0064B1B681B699847034B1846C6
:101040001037BD4680BD00BF700100206C0100203C
:101050009801002090B587B000AF6F4B1B681B78DC
:1010600003F07F033B613B69002B0AD16A4B1B688D
:101070005A7A694B1B6822F02002D2B25A720023BE
:10108000C5E03B69022B40F0C180634B1B685B8865
:10109000002B04D1604B1B681B79002B01D002236D
:1010A000B5E05E4BFB605C4B1B685B79BB60BB686B
:1010B00023F080037B607B683B60574B1B685B7948
:1010C0005BB2002B0BDA3B689B0003F1804303F516
:1010D000B8431B689BB203F030037B610AE03B68B6
:1010E0009B0003F1804303F5B8431B689BB203F4F4
:1010F00040537B61FB681B781A467B68934207D29A
:101100007B69002B04D0444B1B689B7A002B01D1D8
:1011100002237CE0BB6803F08003002B17D03B6800
:101120009B0003F1804303F5B8431B689BB203F0B7
:101130003003102B64D13B68DBB2184601F024FA6F
:101140003B68DBB23021184601F0C0F858E03B683C
:101150009B0003F1804303F5B8431B689BB203F483
:101160004053B3F5805F4BD13B68002B26D13B68E1
:10117000DBB22B4A92F82C201146184601F0C8FA2F
:101180003B689B0003F1804303F5B8431B689BB2A7
:1011900023F4804323F070039CB284F480539CB208
:1011A00084F400539CB21F4B23439AB23B689B00CC
:1011B00003F1804303F5B8431A6021E03B68DBB2DA
:1011C000184601F0B4F93B689B0003F1804303F536
:1011D000B8431B689BB223F4804323F070039CB296
:1011E00084F480539CB284F400539CB20D4B23438F
:1011F0009AB23B689B0003F1804303F5B8431A6041
:10120000094B1B685B699847002300E002231846DE
:101210001C37BD4690BD00BF700100208C0000202F
:10122000900000208080FFFF9801002090B585B0DD
:1012300000AF3F4B1B685B79BB60BB6823F080034A
:101240007B607B683B603A4B1B685B795BB2002B31
:101250000BDA3B689B0003F1804303F5B8431B683E
:101260009BB203F03003FB600AE03B689B0003F194
:10127000804303F5B8431B689BB203F44053FB6003
:101280002C4B1B781A463B6893420CD2284B1B68A8
:101290005B88002B07D1FB68002B04D0244B1B6814
:1012A0009B7A002B01D102233EE0BB6803F0800350
:1012B000002B1AD03B689B0003F1804303F5B84331
:1012C0001B689BB223F4E04323F040039CB284F0FC
:1012D00010039CB2184B23439AB23B689B0003F166
:1012E000804303F5B8431A6019E03B689B0003F1A3
:1012F000804303F5B8431B689BB223F4804323F07B
:1013000070039CB284F480539CB20B4B23439AB27B
:101310003B689B0003F1804303F5B8431A60074B19
:101320001B689B699847002318461437BD4690BD3B
:10133000700100208C0000208080FFFF98010020B9
:1013400080B500AF074B1B685A7A064B1B6842F00A
:101350002002D2B25A72044B1B68DB699847002303
:10136000184680BD700100209801002080B485B02F
:1013700000AF03463960FB800D4B1B685B8AFB6046
:10138000FB88002B0AD13B689988FB689AB2084B0E
:101390001B688A1A92B21A82002303E03B681A681B
:1013A000FB68134418461437BD4680BC704700BF25
:1013B0007001002080B584B000AF3A4B1B68103339
:1013C000BB60BB681B887B60BB689B68002B2DD013
:1013D0007B68002B2AD0BB689B88FB60FA687B681F
:1013E0009A4201D97B68FB60BB689B68FA6892B23D
:1013F000104698473860BB681A88FB689BB2D31ABE
:101400009AB2BB681A80BB685A88FB689BB21344C7
:101410009AB2BB685A80002001F042F9034619468F
:10142000FB689BB21A46386800F0D8FEBB681B8880
:10143000002B0AD01C4B4FF440521A800021002090
:1014400001F048F9194B30221A80BB681A88BB6832
:101450009B889A4204D3134B1B6803221A721DE027
:10146000BB681B88002B04D00E4B1B6805221A7228
:1014700014E0BB681B88002B10D10A4B1B680622A6
:101480001A720B4B1B689BB21A460A4B13445B0043
:101490001A4600231360054B30221A8000BF103714
:1014A000BD4680BD700100209C0100209E010020EF
:1014B000505C00400230002080B586B000AF3B4B4E
:1014C0001B681033FB60FB681B88BB60374B1B68D5
:1014D0001B7A7B61BB68002B1FD17B69042B1CD15D
:1014E000334B1B78002B12D0324B1B689BB21A4631
:1014F000314B13445B001A46002313602F4B3022FC
:101500001A8004237B612A4B00221A7045E00723CE
:101510007B612A4B10221A803FE0FB689B883B616D
:10152000BA683B699A4201D8042300E002237B6138
:101530003A69BB689A4201D9BB683B61FB689B680A
:101540003A6992B2104698477860002001F08EF810
:10155000034619463B699BB21A46786800F004FEC0
:101560003B699BB21946002001F0B4F8FB681A8869
:101570003B699BB2D31A9AB2FB681A80FB685A88FF
:101580003B699BB213449AB2FB685A800B4B3022E2
:101590001A800B4B4FF440521A80044B1B687A6937
:1015A000D2B21A7200BF1837BD4680BD700100204C
:1015B0006E010020505C0040023000209E0100209F
:1015C0009C01002080B584B000AF0223FB735D4B0B
:1015D0001B685B787B605B4B1B681B7803F07F03A9
:1015E000002B56D17B68092B04D1FFF70DFC034675
:1015F000FB7376E07B68052B1AD1524B1B68DB78B6
:101600005BB2002B0EDB4F4B1B689B78002B09D184
:101610004C4B1B689B88002B04D14A4B1B689B7A60
:10162000002B02D00823BB6082E00023FB7358E04C
:101630007B68032B11D1434B1B68DB78012B09D14D
:10164000404B1B689B88002B04D1FFF779FE0346B3
:10165000FB7346E00223FB7343E07B68012B40D120
:10166000384B1B68DB78012B10D1364B1B689B88ED
:10167000002B0BD1334B1B685B7A03F02003002B4C
:1016800004D0FFF7E7FC0346FB732AE00223FB7359
:1016900027E02C4B1B681B7803F07F03012B07D13D
:1016A0007B680B2B1DD1FFF7F5FB0346FB7318E09E
:1016B000244B1B681B7803F07F03022B0FD17B6840
:1016C000012B04D1FFF7C6FC0346FB7309E07B68DE
:1016D000032B06D1FFF7AAFD0346FB7301E00223AB
:1016E000FB73FB7B002B0ED0174B1B685B697A6882
:1016F000D2B2104698470346FB73FB7B032B02D103
:101700000923BB6014E0FB7B002B02D00823BB60E5
:101710000EE00623BB600D4B1B689BB21A460C4BB8
:1017200013445B001A46002313600A4B30221A80D0
:10173000044B1B68BA68D2B21A7200BF1037BD469C
:1017400080BD00BF7001002074010020505C00408B
:10175000023000209E01002080B58AB000AF8D4B82
:101760001B685B78BB6100237B6200237B61BB69E4
:10177000062B24D1874B1B681B7803F07F03002BBB
:1017800040F0D480834B1B689B78FB72FB7A012B63
:1017900004D1814B1B68DB697B62C7E0FB7A022BBB
:1017A00004D17D4B1B681B6A7B62BFE0FB7A032B75
:1017B00040F0BC80784B1B685B6A7B62B6E0BB691B
:1017C000002B78D1734B1B685B88002B73D1714B56
:1017D0001B68DB88022B6ED16E4B1B681B79002BBC
:1017E00069D16C4B1B681B7803F07F03002B07D17A
:1017F000684B1B689B88002B02D1684B7B6294E08E
:10180000644B1B681B7803F07F03012B14D1624BE0
:101810001B689B695F4A12685279002110469847FD
:101820000346002B40F081805A4B1B689B7A002BAB
:101830007BD05A4B7B6278E0564B1B681B7803F0D9
:101840007F03022B71D1534B1B685B7903F00F03AD
:101850003B61504B1B685B7903F07003FB604D4BA1
:101860001B685B795BB2002B0BDA3B699B0003F1D1
:10187000804303F5B8431B689BB203F03003FB6160
:101880000AE03B699B0003F1804303F5B8431B6802
:101890009BB203F44053FB61414B1B781A463B69F2
:1018A000934242D2FB68002B3FD1FB69002B3CD016
:1018B0003A4B7B6239E0BB69082B09D1354B1B6879
:1018C0001B7803F07F03002B30D1364B7B622DE079
:1018D000BB690A2B2AD12F4B1B681B7803F07F03AF
:1018E000012B23D12B4B1B689B7A002B1ED0294B3D
:1018F0001B685B88002B19D1264B1B681B79002BBA
:1019000014D1244B1B68DB88012B0FD1224B1B68A1
:101910009B69204A12685279002110469847034675
:10192000002B03D1204B7B6200E000BF7B6A002BC1
:101930000FD0184B1B687A6992B25A82154B1B68FC
:101940007A6A9A617B6A00209847002387F82330DF
:1019500013E0114B1B681B690E4A1268527810463F
:101960009847034687F8233097F82330032B04D198
:10197000084B1B6809221A7276E0064B1B681B8A0B
:101980004FF6FF72934211D1024B1B6809221A7263
:101990006AE000BF70010020740100201D0F0008E4
:1019A0008C000020CD0D0008590E000897F8233058
:1019B000022B04D02E4B1B681B8A002B04D12C4B0E
:1019C0001B6808221A724FE0294B1B681B785BB218
:1019D000002B40DA264B1B68DB887B60244B1B689E
:1019E0001B8A1A467B689A4205D97A68204B1B6885
:1019F00092B21A8225E01E4B1B681A8A1C4B1B6888
:101A0000DB889A421DD21A4B1B681B8A194A12683E
:101A100092F82C20934203D2174B00221A7010E048
:101A2000134B1B681B8A134A126892F82C2093FBF5
:101A3000F2F101FB02F29B1A002B02D10E4B0122A4
:101A40001A700C4B1B6893F82C20094B1B689A8268
:101A5000FFF732FD07E0064B1B6803221A72074BA3
:101A60004FF440521A8000BF2837BD4680BD00BFEA
:101A700070010020740100206E0100209C010020F4
:101A800090B583B000AF0123FB80304B1B689BB245
:101A90001A462F4B13445B001B689BB25B0003F19B
:101AA000804303F5C0433B602A4B1B681B7A092B1C
:101AB00037D03B685A1C3A60264A12681B7813706C
:101AC0003B685A1C3A60234A12681B7853703A6884
:101AD000FB885B0013443B603B689A1C3A601B88A0
:101AE0001C4A1468184600F0C3FF034663803A6836
:101AF000FB885B0013443B603B689A1C3A601B8880
:101B0000144A1468184600F0B3FF0346A3803A68ED
:101B1000FB885B0013443B603A680E4B1B681288DD
:101B2000DA800C4B1B6801221A720A4B1B68DB8897
:101B3000002B02D1FFF746FD01E0FFF70DFE00F09C
:101B40008DF8034618460C37BD4690BD505C0040EA
:101B5000043000207001002080B582B000AF1F4B20
:101B60001B681B7A7B607B68022B02D07B68042B8E
:101B700006D1FFF7A1FC194B1B681B7A7B6021E0A3
:101B80007B68062B1CD1154B1B685B78052B10D18D
:101B9000124B1B681B7803F07F03002B09D10F4BFE
:101BA0001B68DB78184600F081F80D4B1B681B6A38
:101BB00098470C4B1B689B68984708237B6001E0A3
:101BC00008237B60054B1B687A68D2B21A7200F05A
:101BD00045F8034618460837BD4680BD7001002011
:101BE000980100207401002080B582B000AF194B2D
:101BF0001B681B7A7B607B68022B02D07B68042BFE
:101C000002D108237B6018E07B68032B02D07B683D
:101C1000052B06D1FFF7CEFB0E4B1B681B7A7B60B2
:101C20000BE07B68072B06D10B4B1B68DB689847E2
:101C300008237B6001E008237B60064B1B687A6801
:101C4000D2B21A7200F00AF8034618460837BD46A9
:101C500080BD00BF700100207401002080B500AF7E
:101C60000E4B93F82C301946002000F051FD0C4B20
:101C70001B681B7A082B06D10A4B4FF480521A803E
:101C8000094B10221A80064B1B681B7A092B0CBFCC
:101C900001230023DBB2184680BD00BF9000002066
:101CA000700100209C0100209E01002080B485B0BE
:101CB00000AF0346FB711A4B1B78BB600023FB602F
:101CC0001EE0FB68DBB29B0003F1804303F5B843E1
:101CD0001B689BB21A4640F60F73134043F400434F
:101CE00043F08003FA68D2B21A43FB68DBB29B0070
:101CF00003F1804303F5B8431A60FB680133FB60CE
:101D0000FA68BB689A42DCD3FB7963F07F03DAB2EE
:101D1000044B1A6000BF1437BD4680BC704700BF3B
:101D20008C0000204C5C004080B400AF00BFBD467A
:101D300080BC704780B500AF094B0A4A1A60084B57
:101D40001B6802221A72084B084A1A60084B094A9B
:101D50001A60054B1B681B68984700BF80BD00BF19
:101D6000700100207C010020740100209000002000
:101D700098010020C000002090B583B000AF002380
:101D8000FB8062E1844B1B889BB2DBB203F00F0344
:101D9000DAB2824B1A70814B1B78002B40F008811D
:101DA0007F4B1B689AB27F4B1A807E4B1B889BB27D
:101DB00003F030039AB27C4B1A807A4B1B889BB29B
:101DC00003F440539AB2774B1A80754B1B689BB251
:101DD0004BF6BF741C4084F4005484F02004A2B27B
:101DE000724B13439AB26E4B1A606B4B1B889BB2BB
:101DF00003F01003002B3FD1694B1B689BB21946BF
:101E0000674A48F60F730B401360FFF7A5FE644B5B
:101E10001B689BB24BF6BF741C40624B1B889BB285
:101E200003F480539BB2002B01D084F480545D4BAB
:101E30001B889BB203F400539BB2002B01D084F4A7
:101E40000054594B1B889BB203F010039BB2002B2C
:101E500001D084F01004544B1B889BB203F0200384
:101E60009BB2002B01D084F02004A2B24F4B13434D
:101E70009AB24B4B1A60F2E0494B1B689BB2FB8055
:101E8000FB889BB203F40063002B3FD0444B1B68DC
:101E90009BB21946424A40F68F730B401360FFF71E
:101EA000EFFD3F4B1B689BB24BF6BF741C403D4B94
:101EB0001B889BB203F480539BB2002B01D084F4A7
:101EC0008054384B1B889BB203F400539BB2002B09
:101ED00001D084F40054344B1B889BB203F01003F0
:101EE0009BB2002B01D084F010042F4B1B889BB2B7
:101EF00003F020039BB2002B01D084F02004A2B297
:101F00002A4B13439AB2264B1A60A8E0FB889BB277
:101F10001BB2002B80F29980214B1B689BB21946A3
:101F20001F4A40F68F730B401360FFF75DFE1C4B9A
:101F30001B689BB24BF6BF741C401A4B1B889BB2AC
:101F400003F480539BB2002B01D084F48054154BD2
:101F50001B889BB203F400539BB2002B01D084F486
:101F60000054114B1B889BB203F010039BB2002B53
:101F700001D084F010040C4B1B889BB203F02003AB
:101F80009BB2002B01D084F02004A2B2074B134374
:101F90009AB2034B1A6062E0840B00206F010020AC
:101FA000005C00409C0100209E0100208080FFFF1B
:101FB0002C4B1B789B0003F1804303F5B8431B684F
:101FC0009BB2FB80FB889BB21BB2002B1BDA254B1C
:101FD0001B789B0003F1804303F5B8431B689BB259
:101FE0001946204B1B789B0003F1804303F5B8434F
:101FF00040F68F720A401A601A4B1B78013B1A4A4E
:1020000052F823309847FB889BB203F08003002BE3
:102010001BD0144B1B789B0003F1804303F5B8439E
:102020001B689BB219460F4B1B789B0003F1804342
:1020300003F5B84348F60F720A401A60094B1B7843
:10204000013B0A4A52F823309847094B1B689AB261
:10205000084B1146198013B2002BFFF693AE0C37D4
:10206000BD4690BD6F010020680000204C0000209C
:10207000445C0040840B002080B582B000AF002398
:102080007B6059E0334B47F6FF721A60324B1B8876
:102090009BB2DBB203F00F03DAB2304B1A702F4B56
:1020A0001B789B0003F1804303F5B8431B689BB288
:1020B0007B607B6803F40043002B1CD0274B1B780C
:1020C0009B0003F1804303F5B8431B689BB219469C
:1020D000224B1B789B0003F1804303F5B84340F685
:1020E0008F720A401A601D4B1B78013B1C4A52F844
:1020F0002330984720E07B6803F08003002B1BD03F
:10210000164B1B789B0003F1804303F5B8431B6813
:102110009BB21946114B1B789B0003F1804303F5DA
:10212000B84348F60F720A401A600C4B1B78013B0B
:102130000C4A52F823309847064B1B689AB2064B5C
:102140001146198013B2002B9CDB00BF00BF08377B
:10215000BD4680BD445C0040840B00206F01002020
:10216000680000204C00002080B489B000AF786087
:102170000B467B8013463B803B8801335B107B61C1
:102180007B8803F1005303F540535B00BB617B691F
:10219000FB611AE07B681B783B617B6801337B60E5
:1021A0007B681B781B023A691343FB60BB699A1C6E
:1021B000BA61FA6892B21A80BB690233BB617B686C
:1021C00001337B60FB69013BFB61FB69002BE1D1C3
:1021D00000BF00BF2437BD4680BC704780B487B0C5
:1021E00000AF78600B467B8013463B803B88013311
:1021F0005B10FB607B8803F1005303F540535B00E9
:102200003B61FB687B610EE03B691A1D3A6119680E
:102210007B685A1C7A608AB21A807B6801337B60C3
:102220007B69013B7B617B69002BEDD100BF00BF67
:102230001C37BD4680BC704780B483B000AF0346F6
:10224000FB80FA8804494FF6F87313400B6000BF17
:102250000C37BD4680BC7047505C004080B483B0F2
:1022600000AF0346FB71FB799B0003F1804303F54C
:10227000B8431B689BB218460C37BD4680BC7047FC
:1022800080B483B000AF03460A46FB711346BB809F
:10229000FB799B0003F1804303F5B8431B681BB235
:1022A00023F4EC4323F070031AB2B7F9043013435C
:1022B0001BB29AB2FB799B0003F1804303F5B8434C
:1022C0001A6000BF0C37BD4680BC704790B482B026
:1022D00000AF03460A46FB711346BB80FB799B00A7
:1022E00003F1804303F5B8431B689BB223F4E0433A
:1022F00023F040039CB2BB8803F010039BB2002B79
:1023000002D084F010039CB2BB8803F020039BB280
:10231000002B02D084F020039CB2074B23439AB2D7
:10232000FB799B0003F1804303F5B8431A6000BFBB
:102330000837BD4690BC70478080FFFF90B482B0E4
:1023400000AF03460A46FB711346BB80FB799B0036
:1023500003F1804303F5B8431B689BB223F4804329
:1023600023F070039CB2BB8803F480539BB2002B14
:1023700002D084F480539CB2BB8803F400539BB218
:10238000002B02D084F400539CB2074B23439AB233
:10239000FB799B0003F1804303F5B8431A6000BF4B
:1023A0000837BD4690BC70478080FFFF90B482B074
:1023B00000AF0346FB71FB799B0003F1804303F5FB
:1023C000B8431B689BB223F4E04323F040039CB264
:1023D00084F010039CB284F020039CB2074B23438B
:1023E0009AB2FB799B0003F1804303F5B8431A606E
:1023F00000BF0837BD4690BC704700BF8080FFFF1C
:1024000090B482B000AF0346FB71FB799B0003F1EF
:10241000804303F5B8431B689BB223F4804323F049
:1024200070039CB284F480539CB284F400539CB239
:10243000074B23439AB2FB799B0003F1804303F5DA
:10244000B8431A6000BF0837BD4690BC704700BF54
:102450008080FFFF80B483B000AF0346FB71FB793F
:102460009B0003F1804303F5B8431B681AB240F6A2
:102470000F6313401AB2084B13431BB29AB2FB7995
:102480009B0003F1804303F5B8431A6000BF0C378B
:10249000BD4680BC704700BF8080FFFF80B483B022
:1024A00000AF0346FB71FB799B0003F1804303F50A
:1024B000B8431B689BB243F480739BB21AB240F6D8
:1024C0000F7313401AB2084B13431BB29AB2FB7935
:1024D0009B0003F1804303F5B8431A6000BF0C373B
:1024E000BD4680BC704700BF8080FFFF80B483B0D2
:1024F00000AF0346FB71FB799B0003F1804303F5BA
:10250000B8431B689BB21A4640F60F73134043F45E
:10251000004242F0C002FB799B0003F1804303F5C7
:10252000B8431A6000BF0C37BD4680BC704780B40A
:1025300083B000AF0346FB71FB799B0003F180433E
:1025400003F5B8431B689BB203F48043002B16D0FD
:10255000FB799B0003F1804303F5B8431B689BB2F2
:102560001A4640F60F73134043F4404242F0800293
:10257000FB799B0003F1804303F5B8431A6000BF69
:102580000C37BD4680BC704780B483B000AF0346B3
:10259000FB71FB799B0003F1804303F5B8431B6893
:1025A0009BB203F04003002B16D0FB799B0003F194
:1025B000804303F5B8431B689BB21A4640F60F737D
:1025C000134043F4004242F0C002FB799B0003F148
:1025D000804303F5B8431A6000BF0C37BD4680BC8A
:1025E0007047000080B483B000AF03460A46FB7119
:1025F0001346BB80BB885B089BB21946094B1B681E
:102600009BB21A46FB79DB00134403F1005303F538
:1026100040535B001A464B00136000BF0C37BD46A9
:1026200080BC7047505C004080B483B000AF03466C
:102630000A46FB711346BB80BB885B089BB21946F8
:10264000084B1B689BB21A46FB79DB001A44064B09
:1026500013445B001A464B00136000BF0C37BD46A5
:1026600080BC7047505C00400430002080B483B0D0
:1026700000AF0346FB71094B1B689BB21A46FB79FE
:10268000DB00134403F1005303F540535B001B6868
:102690009BB218460C37BD4680BC7047505C00406A
:1026A00080B483B000AF0346FB71084B1B689BB23C
:1026B0001A46FB79DB001A44054B13445B001B6888
:1026C0009BB218460C37BD4680BC7047505C00403A
:1026D0000430002080B483B000AF03460A46FB718B
:1026E0001346BB80084B1B689BB21A46FB79DB0084
:1026F0001A44064B13445B001A46BB88136000BFA4
:102700000C37BD4680BC7047505C00400230002052
:1027100080B485B000AF03460A46FB711346BB8008
:102720001A4B1B689BB21A46FB79DB001A44184B04
:1027300013445B00BB60BB883E2B12D9BB885B098E
:10274000FB81BB8803F01F03002B02D1FB89013BF7
:10275000FB81FB899B0243F400431A46BB681A6065
:102760000EE0BB885B08FB81BB8803F00103002BF4
:1027700002D0FB890133FB81FB899A02BB681A6096
:1027800000BF1437BD4680BC704700BF505C00409E
:102790000630002080B483B000AF0346FB710A4BC3
:1027A0001B689BB21A46FB79DB001A44074B1344A3
:1027B0005B001B689BB2C3F309039BB218460C373E
:1027C000BD4680BC704700BF505C00400630002012
:1027D00080B483B000AF0346FB710B46BB80134649
:1027E0007B80BB885B089BB21946124B1B689BB26F
:1027F0001A46FB79DB00134403F1005303F5405301
:102800005B001A464B0013607B885B089BB219463D
:10281000084B1B689BB21A46FB79DB001A44064B37
:1028200013445B001A464B00136000BF0C37BD46D3
:1028300080BC7047505C00400430002080B487B0FA
:1028400000AF0346FB710B46BB711346BB80BB79DF
:10285000012B30D1444B1B689BB21A46FB79DB003D
:102860001A44424B13445B003B61BB883E2B12D998
:10287000BB885B09FB82BB8803F01F03002B02D1DE
:10288000FB8A013BFB82FB8A9B0243F400431A460E
:102890003B691A601FE0BB885B08FB82BB8803F0C2
:1028A0000103002B02D0FB8A0133FB82FB8A9A02D0
:1028B0003B691A600FE0BB79022B0CD12A4B1B68D5
:1028C0009BB21A46FB79DB001A44284B13445B0089
:1028D0001A46BB881360BB79012B30D1224B1B6891
:1028E0009BB21A46FB79DB001A44214B13445B0070
:1028F000FB60BB883E2B12D9BB885B09BB82BB88BF
:1029000003F01F03002B02D1BB8A013BBB82BB8AB1
:102910009B0243F400431A46FB681A601FE0BB8821
:102920005B08BB82BB8803F00103002B02D0BB8A8B
:102930000133BB82BB8A9A02FB681A600FE0BB7945
:10294000022B0CD1084B1B689BB21A46FB79DB00AB
:102950001A44074B13445B001A46BB88136000BF40
:102960001C37BD4680BC7047505C004002300020E0
:102970000630002080B483B000AF0346FB710A4BE1
:102980001B689BB21A46FB79DB001A44074B1344C1
:102990005B001B689BB2C3F309039BB218460C375C
:1029A000BD4680BC704700BF505C00400230002034
:1029B00080B483B000AF0346FB710A4B1B689BB227
:1029C0001A46FB79DB001A44074B13445B001B6873
:1029D0009BB2C3F309039BB218460C37BD4680BCBB
:1029E000704700BF505C00400630002080B483B0C8
:1029F00000AF03460A46FB711346BB71BB79012B3E
:102A000017D1FB799B0003F1804303F5B8431B68A2
:102A10009BB21A4640F60F73134043F4004242F053
:102A2000C002FB799B0003F1804303F5B8431A60B1
:102A300019E0BB79022B16D1FB799B0003F180438F
:102A400003F5B8431B689BB21A4640F60F73134058
:102A500043F4404242F08002FB799B0003F1804343
:102A600003F5B8431A6000BF0C37BD4680BC704701
:102A700080B485B000AF0346FB80FB88FB73FB8806
:102A80001B0A9BB21AB2FB7B1B021BB213431BB285
:102A9000BB81BB8918461437BD4680BC7047000017
:102AA00080B400AF074B00221A60074B4FF4064278
:102AB0001A80054B1A88054B1A6000231846BD463C
:102AC00080BC7047445C004078010020405C0040BE
:102AD00080B584B000AF0346B9607A60FB73FB7BBE
:102AE00003F07F03DBB21846FFF7C0FD034619462B
:102AF0007B689BB21A46B868FFF736FBFB7B03F096
:102B00007F03DBB27A6892B211461846FFF7E2FD06
:102B1000002318461037BD4680BD80B584B000AF95
:102B200003463960FB710023FB60FB7903F07F03F0
:102B3000DBB21846FFF72EFE0346FB60FB7903F07D
:102B40007F03DBB21846FFF7ABFD03461946FB686F
:102B50009BB21A463868FFF741FBFB6818461037EE
:102B6000BD4680BD80B582B000AF204B1B78DBB284
:102B7000002B34D01E4B1A681E4B1B689A4230D172
:102B80000220FFF76BFB034603F04003002B0CD041
:102B90000220FFF7EFFE0346FB80FB881A464FF446
:102BA00080711548FFF71AFB0BE00220FFF700FFCA
:102BB0000346FB80FB881A464FF4A0710E48FFF7CE
:102BC0000DFBFB880B4A1360094B00221A60074B70
:102BD00000221A7001210220FFF708FF02E000BF67
:102BE00000E000BF0837BD4680BD00BFA001002047
:102BF000E8010020E4010020A401002080B582B09B
:102C000000AF1F4B1B78DBB2002B33D01D4800F008
:102C100071FE78607B683E2B02D93E237B6011E019
:102C20007B68002B0ED1FEF7C7F80246164B1B68D7
:102C3000D31A092B06D8154B1B78002B1CD0134B2D
:102C400000221A70FEF7B8F803460F4A13607A683C
:102C50000F490C4800F071FE094B00221A707B6886
:102C600002331A460B498120FFF732FF0120FFF79C
:102C70009DFB02E000BF00E000BF0837BD4680BDFD
:102C8000000000206C020020840200208802002046
:102C90002E0200202C02002080B582B000AF5AE046
:102CA000354B1B68354AD35CFB71354B1B68002BD9
:102CB00033D197F90730DBB2DB09DBB21A46314B6F
:102CC0001A70FB7903F04003002B14BF012300238B
:102CD000DBB21A462C4B1A702A4B1B78002B05D0FE
:102CE000FB7903F03F03264A13602FE0264B1B7845
:102CF000002B0DD0FB79184600F0BCF800F0F4F87A
:102D00000346FB71FB791946204800F067FE1DE081
:102D1000FB79184600F0AEF818E01B4B1B78002B2F
:102D20000BD0FB79184600F061F90346FB71FB7983
:102D30001946164800F052FE03E0FB79184600F0F1
:102D4000E7F80F4B1B68013B0D4A13600A4B1B68E9
:102D50000133094A1360084B1A680D4B1B689A42ED
:102D600005D20A4800F0D4FD0346002B98D000BFDE
:102D70000837BD4680BD00BFE8010020A401002047
:102D80007C02002080020020810200206C020020D2
:102D9000E401002080B500AF144B00221A70144BE0
:102DA00001221A70134B00221A60134B00221A7072
:102DB000124B00221A70124B00221A60114B012292
:102DC0001A70114B00221A60104B00221A60104B2F
:102DD00001221A700E4B60225A7040220D490E4893
:102DE00000F061FD00F024F800BF80BDA0010020CC
:102DF000000000207C0200208002002081020020D0
:102E00008402002088020020E4010020E801002064
:102E10002C020020EC0100206C02002080B500AFE5
:102E2000FFF7A0FEFFF738FFFFF7E8FE00BF80BD09
:102E300080B582B000AF0121082001F009FB6823B2
:102E4000BB800123BB711023FB713B1D1946084851
:102E500001F0D8F81023BB804823FB713B1D1946B5
:102E6000034801F0CFF800BF0837BD4680BD00BF62
:102E7000000C014080B483B000AF0346FB71FB79C6
:102E800003F01003002B14BF01230023DAB2124B0E
:102E90001A60FB7903F00203002B14BF0123002307
:102EA000DAB20E4B1A60FB7903F00103002B14BF5A
:102EB00001230023DAB20A4B1A60FB7903F02003E6
:102EC000002B14BF01230023DAB2064B1A6000BFA7
:102ED0000C37BD4680BC70479481214298812142C5
:102EE0008C812142A001214280B483B000AF002335
:102EF0007B60064B1B687A6813437B607B68DBB2A0
:102F000018460C37BD4680BC704700BF1081214277
:102F100080B483B000AF0346FB71324AFB79136083
:102F2000314B01221A60FB795B08FB712E4B0022AA
:102F30001A602C4AFB7913602B4B01221A60FB7933
:102F40005B08FB71284B00221A60264AFB7913604C
:102F5000254B01221A60FB795B08FB71224B002292
:102F60001A60204AFB7913601F4B01221A60FB791B
:102F70005B08FB711C4B00221A601A4AFB79136034
:102F8000194B01221A60FB795B08FB71164B00227A
:102F90001A60144AFB791360134B01221A60FB7903
:102FA0005B08FB71104B00221A600E4AFB7913601C
:102FB0000D4B01221A60FB795B08FB710A4B002262
:102FC0001A60084AFB791360074B01221A60FB79EB
:102FD0005B08FB71044B00221A6000BF0C37BD4632
:102FE00080BC7047948121428C81214280B485B09D
:102FF00000AF0346FB71FB79FB604B4AFB68136033
:103000004A4B1B68BB604A4B01221A60FB685A0896
:10301000BB68DB011343FB60454B00221A60424A48
:10302000FB681360414B1B68BB60414B01221A6077
:10303000FB685A08BB68DB011343FB603C4B002272
:103040001A60394AFB681360384B1B68BB60384B09
:1030500001221A60FB685A08BB68DB011343FB605E
:10306000334B00221A60304AFB6813602F4B1B68F9
:10307000BB602F4B01221A60FB685A08BB68DB015A
:103080001343FB602A4B00221A60274AFB68136037
:10309000264B1B68BB60264B01221A60FB685A084E
:1030A000BB68DB011343FB60214B00221A601E4A00
:1030B000FB6813601D4B1B68BB601D4B01221A602F
:1030C000FB685A08BB68DB011343FB60184B002206
:1030D0001A60154AFB681360144B1B68BB60144BE5
:1030E00001221A60FB685A08BB68DB011343FB60CE
:1030F0000F4B00221A600C4AFB6813600B4B1B68D5
:10310000BB600B4B01221A60FB685A08BB68DB01ED
:103110001343FB60064B00221A60FB68DBB21846C3
:103120001437BD4680BC70479481214210812142F2
:103130008C81214280B485B000AF78600B46FB7073
:103140004AF6AA237B810023FB601FE0FB68013362
:103150007A6813441B781B021AB27968FB680B4427
:103160001B781BB213431AB2B7F90A3053401BB293
:103170007B817B895B001AB27B89DB0B9BB21BB224
:1031800013431BB27B81FB680233FB60FB78FA6858
:103190009A42DBD37B8918461437BD4680BC704702
:1031A00080B584B000AF0023FB71864BBB60864BBB
:1031B0001B781A46854B1B781344854A12781344B2
:1031C000642B02DD4FF0FF33F7E0BB685A1CBA6096
:1031D00000221A70BB685A1CBA6000221A700023C1
:1031E000FB600BE0FB6803F10802BB68591CB96087
:1031F00078498A5C1A70FB680133FB60FB68052B19
:10320000F0D9BB685A1CBA60734AD2791A70BB688D
:103210005A1CBA60704A127A1A70BB685A1CBA609B
:103220001C221A70BB685A1CBA6000221A70BB6854
:103230005A1CBA60674A92781A70BB685A1CBA6006
:10324000644AD2781A70BB685E4A9B1ADBB20633B6
:10325000DBB25BB263F07F035BB2FB71BB685A1CED
:10326000BA60FA791A70BB685A1CBA60564A12786A
:103270001A70554B1A78FB791344FB71BB685A1CC2
:10328000BA60FA791A70BB685A1CBA604F4A127851
:103290001A704E4B1A78FB791344FB71BB685A1CA9
:1032A000BA60FA791A70BB685A1CBA60484A127838
:1032B0001A700023FB600AE0BB685A1CBA604249DE
:1032C000FA680A4412781A70FB680133FB603E4BBF
:1032D0001B781A46FB689342EED30023FB600AE09A
:1032E000BB685A1CBA603949FA680A4412781A70E5
:1032F000FB680133FB60354B1B781A46FB68934231
:10330000EED30023FB600AE0BB685A1CBA60304968
:10331000FA680A4412781A70FB680133FB602C4B80
:103320001B781A46FB689342EED3BB685A1CBA60FE
:1033300002221A70BB685A1CBA6003221A70BB685A
:103340005A1CBA6001221A70BB685A1CBA6000226B
:103350001A70BB685A1CBA6052221A70BB685A1C99
:10336000BA6045221A70BB685A1CBA6056221A709D
:10337000BB685A1CBA6042221A7004E0BB685A1C2F
:10338000BA6000221A70BB680E4A9B1A7D2BF5DDCD
:103390007E210C48FFF7CEFE0346BB80BB685A1C5B
:1033A000BA60BA88D2B21A70BB881B0A99B2BB68DD
:1033B0005A1CBA60CAB21A70002318461037BD46AC
:1033C00080BD00BF8C020020285800083858000833
:1033D0001C00002098570008AC57000880B483B048
:1033E00000AF0346FB71FB790133084AD35C1B0233
:1033F0001AB2FB790549CB5C1BB213431BB29BB2DB
:1034000018460C37BD4680BC704700BF8C020020B8
:1034100080B500AFFDF742FB0120FDF783FB00BF45
:1034200002219B4800F055FD0346002BF8D0984838
:1034300000F043FD03461846FCF7DCFF88A3D3E900
:103440000023FDF741F802460B461046194686A3B5
:10345000D3E90023FDF762F902460B4610461946F0
:10346000FDF7CCFA03468B4A13600220FDF75AFBA6
:1034700000BF0221864800F02CFD0346002BF8D047
:10348000834800F01AFD03461846FCF7B3FF74A307
:10349000D3E90023FDF718F802460B4610461946FB
:1034A00071A3D3E90023FDF739F902460B46104614
:1034B0001946FDF7A3FA0346774A1360744800F0F3
:1034C00025FB00F04BF90121744800F057FE03463C
:1034D000002B0CD16F4B1B681846FCF79DFF64A3B3
:1034E000D3E90023FDF780FA0346002B01D0012326
:1034F00000E00023DAB26A4B1A7000F049F900F0DC
:103500005DF900F07FF9FDF72FFCFDF759FB01F0A5
:10351000E3FAFEF70FFC5F4B1B681846FCF77CFFD5
:1035200053A3D3E90023FDF741FA0346002B0CD146
:10353000594B1B681846FCF76FFF4DA3D3E90023D6
:10354000FDF734FA0346002B0AD04FF4806155484A
:1035500000F03BFE4FF40061524800F036FEE1E01F
:103560004C4B1B681846FCF757FF41A3D3E90023D7
:10357000FDF73AFA0346002B0CD0464B1B68184661
:10358000FCF74AFF3CA3D3E90023FDF70FFA0346FB
:10359000002B19D1404B1B681846FCF73DFF34A3A4
:1035A000D3E90023FDF720FA0346002B17D03A4B4E
:1035B0001B681846FCF730FF2FA3D3E90023FDF763
:1035C000F5F90346002B0AD04FF48061354800F02E
:1035D000FCFD4FF40061334800F0E9FDA2E02D4B03
:1035E0001B681846FCF718FF25A3D3E90023FDF755
:1035F000FBF90346002B0CD0264B1B681846FCF742
:103600000BFF21A3D3E90023FDF7D0F90346002BDC
:1036100019D1214B1B681846FCF7FEFE18A3D3E90D
:103620000023FDF7E1F90346002B3DD01A4B1B6840
:103630001846FCF7F1FE14A3D3E90023FDF7B6F911
:103640000346002B30D04FF48061164800F0AFFDE8
:103650004FF40061134800F0B8FD63E0AFF3008061
:103660006666666666660A400000000000FEAF40BF
:103670009A9999999999C93FCDCCCCCCCCCCE43FBF
:103680001F85EB51B81EE53F85EB51B81E85F33F12
:1036900000240140180300201C0300200008014002
:1036A00010030020000C0140274B1B681846FCF754
:1036B000B3FE21A3D3E90023FDF796F90346002BBF
:1036C0000CD0214B1B681846FCF7A6FE1CA3D3E9BF
:1036D0000023FDF76BF90346002B19D11B4B1B6828
:1036E0001846FCF799FE14A3D3E90023FDF77CF9F3
:1036F0000346002B16D0154B1B681846FCF78CFEB2
:103700000FA3D3E90023FDF751F90346002B09D09D
:103710004FF480610E4800F04AFD4FF400610C4800
:1037200000F045FD0B48FDF76BFA0B4B1B68052BB2
:10373000F8D1FFF773FBF5E7AE47E17A14AEF33F3C
:1037400052B81E85EB510040180300201C030020D6
:10375000000C0140140300208C0B002080B500AF4A
:103760000121042000F074FE074B01221A80064B51
:1037700003229A70044B2822DA700349034800F0B0
:1037800041FC00BF80BD00BF0C03002000080140C9
:1037900080B500AF074B4FF480721A80054B0322AF
:1037A0009A70044B1022DA700249034800F02AFC98
:1037B00000BF80BD0C0300200008014080B500AFB1
:1037C0000E4B4FF480621A800C4B03229A700B4B05
:1037D0001022DA7009490A4800F014FC074B4FF434
:1037E00000621A80054B03229A70044B1022DA7093
:1037F0000249034800F006FC00BF80BD0C03002016
:10380000000C014080B500AF0121012000F020FE36
:103810000121034800F0E8FCFFF7BCFA00BF80BDBF
:103820000002300080B489B000AFF860B9607A60FF
:10383000FB68BB61BB687B610023FB610AE07A69BE
:10384000FB691A44B969FB690B4412781A70FB6969
:103850000133FB61FA697B689A42F0D3FB68184632
:103860002437BD4680BC704780B489B000AFF86093
:10387000B9607A60FB68BB61BB68FB750023FB61C4
:1038800007E0BA69FB691344FA7D1A70FB690133DA
:10389000FB61FA697B689A42F3D3FB6818462437C8
:1038A000BD4680BC704780B584B000AFF860B96099
:1038B0007A607B68002B05D07B685A1E7B681340BA
:1038C000002B01D0002311E010220021F868FFF73F
:1038D000CBFFFB68BA681A60FB687A685A60FB68BD
:1038E00000229A60FB680022DA6001231846103734
:1038F000BD4680BD80B483B000AF78607B689A68B5
:103900007B68DB68D31A18460C37BD4680BC70470D
:1039100080B483B000AF78607B689A687B68DB68AE
:10392000D21A7B685B689A420CBF01230023DBB28A
:1039300018460C37BD4680BC704780B586B000AFD6
:10394000F860B9607A6000237B61FB689A68FB6865
:10395000DB68D31A7A68934228BF13467B60FB6802
:103960005A68FB68D968FB685B68013B0B40D31A57
:103970007A68934228BF13467B61FB681A68FB682C
:10398000D968FB685B68013B0B4013447A691946B0
:10399000B868FFF747FFBA687B69D018FB681968F9
:1039A0007A687B69D31A1A46FFF73CFFFB68DA682E
:1039B0007B681A44FB68DA60FB689A68FB68DB681E
:1039C0009A4206D1FB680022DA60FB68DA68FB687D
:1039D0009A607B6818461837BD4680BD80B582B0B6
:1039E00000AF78600B46FB707868FFF791FF0346E5
:1039F000002B01D0002310E07B681A687B6899686F
:103A00007B685B68013B0B401344FA781A707B6853
:103A10009B685A1C7B689A60012318460837BD468C
:103A200080BD000080B483B000AF7860054A7B6839
:103A300043F0BF6343F40033D36000BF0C37BD468F
:103A400080BC704700ED00E080B487B000AF7860C4
:103A500000237B6100233B610F23FB607B68DB78E5
:103A6000002B3AD0274BDB68DB431B0A03F007032C
:103A70007B617B69C3F104033B61FA687B6922FACD
:103A800003F3FB607B685B781A463B6902FA03F339
:103A90007B617B689B781A46FB6813407A69134305
:103AA0007B617B691B017B61174A7B681B787969A5
:103AB000C9B213440A4683F800237B681B7803F0DD
:103AC0001F0311497A6812785209D2B210460122B6
:103AD00002FA03F341F820300FE07B681B7803F013
:103AE0001F0309497A6812785209D2B2104601229E
:103AF0009A4000F1200341F8232000BF1C37BD4647
:103B000080BC704700ED00E000E100E080B582B0CD
:103B100000AF78607B68174A93420AD101214FF4C5
:103B2000007000F0D1FC00214FF4007000F0CCFCDC
:103B30001CE07B68104A93420AD101214FF4806057
:103B400000F0C2FC00214FF4806000F0BDFC0DE0ED
:103B50007B680A4A934209D101214FF4004000F0EA
:103B6000B3FC00214FF4004000F0AEFC00BF08376A
:103B7000BD4680BD0024014000280140003C0140BA
:103B800080B485B000AF786039600023FB6000230B
:103B9000FB727B685B68FB60FB6823F4702323F493
:103BA0008073FB603B681A683B681B791B021343F8
:103BB000FA681343FB607B68FA685A607B689B680D
:103BC000FB60FA68164B1340FB603B68DA683B68A1
:103BD0009B681A433B685B795B001343FA681343A5
:103BE000FB607B68FA689A607B68DB6AFB60FB6855
:103BF00023F47003FB603B681B7C013BDAB2FB7A69
:103C00001343FB72FB7A1B05FA681343FB607B6866
:103C1000FA68DA6200BF1437BD4680BC704700BF47
:103C2000FDF7F1FF80B483B000AF78600B46FB7006
:103C3000FB78002B06D07B689B6843F001027B6811
:103C40009A6005E07B689B6823F001027B689A60BC
:103C500000BF0C37BD4680BC704780B483B000AF56
:103C600078607B689B6843F008027B689A6000BFBD
:103C70000C37BD4680BC704780B485B000AF78601B
:103C80000023FB737B689B6803F00803002B02D0C2
:103C90000123FB7301E00023FB73FB7B1846143701
:103CA000BD4680BC704780B483B000AF78607B684D
:103CB0009B6843F004027B689A6000BF0C37BD46E6
:103CC00080BC704780B485B000AF78600023FB7380
:103CD0007B689B6803F00403002B02D00123FB7375
:103CE00001E00023FB73FB7B18461437BD4680BC04
:103CF000704780B483B000AF78600B46FB70FB78F0
:103D0000002B06D07B689B6843F4A0027B689A6016
:103D100005E07B689B6823F4A0027B689A6000BF83
:103D20000C37BD4680BC704780B485B000AF78606A
:103D3000084611461A460346FB700B46BB701346F5
:103D40007B700023FB600023BB60FB78092B23D929
:103D50007B68DB68FB60FB78A3F10A0213465B001B
:103D60001344072202FA03F3BB60BB68DB43FA6823
:103D70001340FB607978FB78A3F10A0213465B00DD
:103D8000134401FA03F3BB60FA68BB681343FB609A
:103D90007B68FA68DA601EE07B681B69FB60FA7872
:103DA00013465B001344072202FA03F3BB60BB68AF
:103DB000DB43FA681340FB607978FA7813465B00BE
:103DC000134401FA03F3BB60FA68BB681343FB605A
:103DD0007B68FA681A61BB78062B21D87B685B6B1D
:103DE000FB60BB785A1E13469B0013441F2202FA45
:103DF00003F3BB60BB68DB43FA681340FB60F978F0
:103E0000BB785A1E13469B00134401FA03F3BB60B0
:103E1000FA68BB681343FB607B68FA685A6347E043
:103E2000BB780C2B21D87B681B6BFB60BB78DA1F3F
:103E300013469B0013441F2202FA03F3BB60BB68C6
:103E4000DB43FA681340FB60F978BB78DA1F13464E
:103E50009B00134401FA03F3BB60FA68BB68134389
:103E6000FB607B68FA681A6322E07B68DB6AFB60B0
:103E7000BB78A3F10D0213469B0013441F2202FAE4
:103E800003F3BB60BB68DB43FA681340FB60F9785F
:103E9000BB78A3F10D0213469B00134401FA03F310
:103EA000BB60FA68BB681343FB607B68FA68DA6240
:103EB00000BF1437BD4680BC704780B483B000AFEC
:103EC00078607B68DB6C9BB218460C37BD4680BCC3
:103ED000704780B485B000AF78600B46FB7000235C
:103EE000FB737B681A68FB781340002B02D0012318
:103EF000FB7301E00023FB73FB7B18461437BD46C0
:103F000080BC704780B485B000AF78600023FB6050
:103F1000344BFB607B689B79002B4FD0314B1A6888
:103F20007B681B68DB432F4913400B602D4B5A689D
:103F30007B681B68DB432B4913404B607B681B7914
:103F40001A46FB681344FB60FB6819687B681A68B3
:103F5000FB680A431A60234B9A687B681B68DB4343
:103F6000204913408B601F4BDA687B681B68DB437A
:103F70001C491340CB607B685B79102B0ED1194B29
:103F80009A687B681B68174913438B60154BDA6886
:103F90007B681B6813491343CB601DE0114BFB602A
:103FA0007B685B791A46FB681344FB60FB68196801
:103FB0007B681A68FB680A431A600DE07B681B790E
:103FC0001A46FB681344FB60FB6819687B681B6832
:103FD000DA43FB680A401A6000BF1437BD4680BC54
:103FE000704700BF0004014080B483B000AF786028
:103FF000034A7B68536100BF0C37BD4680BC7047E5
:104000000004014080B489B000AF786039600023BB
:10401000FB6100233B610023BB610023FB600023A5
:104020007B610023BB603B68DB7803F00F03FB611F
:104030003B68DB7803F01003002B05D03B689B78CE
:104040001A46FB691343FB613B681B88DBB2002BFC
:1040500044D07B681B687B610023BB6138E0012290
:10406000BB6902FA03F3FB603B681B881A46FB68D6
:1040700013403B613A69FB689A4226D1BB699B00B9
:10408000FB600F22FB6802FA03F3BB60BB68DB43F3
:104090007A6913407B61FA69FB6802FA03F37A6973
:1040A00013437B613B68DB78282B05D10122BB6978
:1040B0009A407B685A6108E03B68DB78482B04D162
:1040C0000122BB699A407B681A61BB690133BB61FD
:1040D000BB69072BC3D97B687A691A603B681B8868
:1040E000FF2B46D97B685B687B610023BB613AE0AC
:1040F000BB690833012202FA03F3FB603B681B88AB
:104100001A46FB6813403B613A69FB689A4227D123
:10411000BB699B00FB600F22FB6802FA03F3BB60E4
:10412000BB68DB437A6913407B61FA69FB6802FA7A
:1041300003F37A6913437B613B68DB78282B05D155
:10414000BB69083301229A407B685A613B68DB787F
:10415000482B05D1BB69083301229A407B681A615C
:10416000BB690133BB61BB69072BC1D97B687A6925
:104170005A6000BF2437BD4680BC704780B485B00C
:1041800000AF78600B467B800023FB737B689A68E6
:104190007B881340002B02D00123FB7301E0002336
:1041A000FB73FB7B18461437BD4680BC704780B458
:1041B00083B000AF78600B467B807A887B681A6199
:1041C00000BF0C37BD4680BC704780B483B000AFE1
:1041D00078600B467B807A887B685A6100BF0C3719
:1041E000BD4680BC7047000080B487B000AF7860E7
:1041F0000B46FB7000233B610023FB6000237B61C7
:104200000023BB607B68002B03DA2E4BDB697B61EC
:1042100002E02C4B5B687B617B681B0C03F00F0397
:10422000BB607B689BB23B617B6803F44013B3F5D2
:10423000401F0AD17B6923F070637B61214B5B686F
:10424000204A23F07063536021E07B6803F48013FD
:10425000002B0ED00322BB6802FA03F3FB60FB685D
:10426000DB437A6913407B617B6943F070637B6158
:104270000DE07B685B0D1B013A6902FA03F3DB4337
:104280007A6913407B617B6943F070637B61FB78E3
:10429000002B08D07B685B0D1B013A6902FA03F31F
:1042A0007A6913437B617B68002B03DA054A7B69DB
:1042B000D36102E0034A7B69536000BF1C37BD46EF
:1042C00080BC70470000014080B483B000AF7860CC
:1042D000034A7B68136000BF0C37BD4680BC704743
:1042E000D800424280B487B000AF786000237B6181
:1042F00000233B610023FB600023BB604F4B5B68E6
:1043000003F00C037B617B69082B11D07B69082BC0
:104310003AD87B69002B03D07B69042B04D033E0AF
:104320007B68474A1A6033E07B68454A1A602FE091
:10433000424B5B6803F470133B61404B5B6803F4D2
:104340008033FB603B699B0C02333B61FB68002BB5
:1043500006D13B693B4A03FB02F27B681A6017E017
:10436000364B5B6803F40033002B06D03B69354ABB
:1043700003FB02F27B681A600AE03B69304A03FBE8
:1043800002F27B681A6003E07B682D4A1A6000BF66
:104390002A4B5B6803F0F0037B617B691B097B613F
:1043A000294A7B6913441B78DBB2BB607B681A68BF
:1043B000BB68DA407B685A60204B5B6803F4E063BB
:1043C0007B617B691B0A7B611F4A7B6913441B78F5
:1043D000DBB2BB607B685A68BB68DA407B689A6076
:1043E000164B5B6803F460537B617B69DB0A7B617E
:1043F000154A7B6913441B78DBB2BB607B685A6843
:10440000BB68DA407B68DA600C4B5B6803F44043BE
:104410007B617B699B0B7B610C4A7B6913441B7836
:10442000DBB2BB607B68DA68BB68B2FBF3F27B6827
:104430001A6100BF1C37BD4680BC704700100240A7
:1044400000127A0000093D00040000201400002042
:1044500080B483B000AF78600B46FB70FB78002B14
:1044600006D0094B9A6908497B6813438B6106E0C3
:10447000054B9A697B68DB43034913408B6100BF9E
:104480000C37BD4680BC70470010024080B483B03A
:1044900000AF78600B46FB70FB78002B06D0094B11
:1044A000DA6908497B681343CB6106E0054BDA699A
:1044B0007B68DB4303491340CB6100BF0C37BD462B
:1044C00080BC70470010024080B483B000AF7860B9
:1044D0000B46FB70FB78002B06D0094BDA680849C5
:1044E0007B681343CB6006E0054BDA687B68DB43EF
:1044F00003491340CB6000BF0C37BD4680BC7047FA
:104500000010024080B58CB000AF786039600023A5
:10451000FB620023BB6200237B6200233B6200231B
:10452000FB617B68FB617B681B8A9BB2FB62FA6A5A
:104530004CF6FF731340FB623B68DB881A46FB6A4C
:104540001343FB62FB6A9AB27B681A827B689B8981
:104550009BB2FB62FA6A4EF6F3131340FB623B68B0
:104560009A883B681B8913439AB23B685B89134363
:104570009BB21A46FB6A1343FB62FB6A9AB27B68E2
:104580009A817B689B8A9BB2FB62FA6A4FF6FF4373
:104590001340FB623B689B891A46FB6A1343FB622C
:1045A000FB6A9AB27B689A8207F108031846FFF704
:1045B00099FEFB692E4A934202D17B69BB6201E0FE
:1045C0003B69BB627B689B899BB21BB2002B0CDAF8
:1045D000BA6A13469B0013449A001A443B681B684E
:1045E0005B00B2FBF3F37B620BE0BA6A13469B00FD
:1045F00013449A001A443B681B689B00B2FBF3F318
:104600007B627B6A1B4AA2FB03235B091B01FB62E3
:10461000FB6A1B09642202FB03F37A6AD31A3B622A
:104620007B689B899BB21BB2002B0CDA3B6ADB00D8
:104630003233104AA2FB03235B0903F00703FA6A33
:104640001343FB620BE03B6A1B013233094AA2FBB6
:1046500003235B0903F00F03FA6A1343FB62FB6A4F
:104660009AB27B681A8100BF3037BD4680BD00BF5B
:10467000003801401F85EB5180B483B000AF7860F3
:104680000B46FB70FB78002B08D07B689B899BB2A4
:1046900043F400539AB27B689A8107E07B689B8958
:1046A0009BB223F400539AB27B689A8100BF0C3707
:1046B000BD4680BC704780B487B000AF78600B46C1
:1046C0007B8013467B7000233B610023FB6000234B
:1046D000BB6000237B617B687B617B88DBB25B090D
:1046E000DBB23B617B8803F01F03FB600122FB68A8
:1046F00002FA03F3BB603B69012B03D17B690C33E6
:104700007B6109E03B69022B03D17B6910337B613C
:1047100002E07B6914337B617B78002B06D07B69D8
:1047200019687B69BA680A431A6006E07B691968F0
:10473000BB68DA437B690A401A6000BF1C37BD467C
:1047400080BC704780B483B000AF78600B467B803C
:104750007B88C3F308039AB27B689A8000BF0C374A
:10476000BD4680BC704780B483B000AF78607B6882
:104770009B889BB2C3F308039BB218460C37BD4617
:1047800080BC704780B485B000AF78600B467B80FA
:104790000023FB737B681B889AB27B8813409BB213
:1047A000002B02D00123FB7301E00023FB73FB7B92
:1047B00018461437BD4680BC704780B487B000AF40
:1047C00078600B467B800023FB6000237B61002325
:1047D000BB600023FB747B88DBB25B09DBB2BB6090
:1047E0007B8803F01F037B6101227B6902FA03F3DC
:1047F0007B61BB68012B07D17B689B899BB21A4602
:104800007B6913407B6111E0BB68022B07D17B6899
:104810001B8A9BB21A467B6913407B6106E07B686A
:104820009B8A9BB21A467B6913407B617B881B0A7B
:104830009BB2FB600122FB6802FA03F3FB607B681A
:104840001B889BB21A46FB681340FB607B69002BF8
:1048500005D0FB68002B02D00123FB7401E000238C
:10486000FB74FB7C18461C37BD4680BC70470000BB
:10487000002103E00A4B5B584350043109480A4BBE
:1048800042189A42F6D3094A02E0002342F8043B58
:10489000074B9A42F9D300F065F8FEF7B9FD70476F
:1048A000B858000800000020440100204401002006
:1048B000900B0020FEE780B400AF00BFBD4680BC77
:1048C000704780B400AF00BFFDE780B400AF00BF09
:1048D000FDE780B400AF00BFFDE780B400AF00BFCC
:1048E000FDE780B400AF00BFBD4680BC704780B418
:1048F00000AF00BFBD4680BC704780B400AF00BFB2
:10490000BD4680BC704780B500AFFDF7B5FB00BF6A
:1049100080BD80B500AF00F019FC00BF80BD80B540
:1049200000AF4FF48020FFF75FFB00BF80BD0000A9
:1049300080B500AF40F225510948FFF73EFF03461E
:10494000002B01D000F07EFA08210548FFF71AFF7E
:104950000346002B02D00248FFF705FF00BF80BDD1
:104960000038014080B500AF154B1B68144A43F076
:1049700001031360124B5A681149124B13404B60EC
:104980000F4B1B680E4A23F0847323F480331360AB
:104990000B4B1B680A4A23F480231360084B5B68A7
:1049A000074A23F4FE035360054B4FF41F029A603D
:1049B00000F00CF8044B4FF000629A6000BF80BD1D
:1049C000001002400000FFF800ED00E080B500AFED
:1049D00000F002F800BF80BD80B483B000AF0023B8
:1049E0007B6000233B603A4B1B68394A43F48033B9
:1049F0001360374B1B6803F400333B607B68013363
:104A00007B603B68002B03D17B68B3F5A06FF0D1CE
:104A10002F4B1B6803F40033002B02D001233B60B3
:104A200001E000233B603B68012B4BD1294B1B6805
:104A3000284A43F010031360264B1B68254A23F0D5
:104A400003031360234B1B68224A43F002031360E5
:104A50001F4B1F4A5B6853601D4B1D4A5B685360C8
:104A60001B4B5B681A4A43F480635360184B5B68C6
:104A7000174A23F47C135360154B5B68144A43F4C4
:104A8000E8135360124B1B68114A43F080731360A4
:104A900000BF0F4B1B6803F00073002BF9D00C4BC9
:104AA0005B680B4A23F003035360094B5B68084AB9
:104AB00043F00203536000BF054B5B6803F00C0337
:104AC000082BF9D100BF0C37BD4680BC704700BF32
:104AD000001002400020024080B500AF00F056F800
:104AE00000F012F800F06CF800F002F800BF80BD92
:104AF00080B500AF0020FFF7E7FB01214FF4000075
:104B0000FFF7C4FC00BF80BD80B582B000AF4FF49A
:104B1000A060FEF787FF14233B7102237B71002303
:104B2000BB710123FB713B1D1846FEF78DFF2A2345
:104B30003B7100237B713B1D1846FEF785FF252343
:104B40003B7101237B713B1D1846FEF77DFF00BFC3
:104B50000837BD4680BD000080B582B000AF034677
:104B6000FB71FB79002B05D04FF400410648FFF79D
:104B70001EFB04E04FF400410348FFF726FB00BF93
:104B80000837BD4680BD00BF0008014080B582B037
:104B900000AF01210420FFF75BFC4FF40043BB8012
:104BA0001023FB710223BB713B1D19460348FFF71D
:104BB00029FA00BF0837BD4680BD00BF000801408C
:104BC00080B582B000AF4FF48020FFF70DFA4FF4AC
:104BD00080233B6008237B710123BB713B46184651
:104BE000FFF790F900BF0837BD4680BD80B500AF24
:104BF0000F4B4FF416521A600D4B00229A800C4B4B
:104C00000022DA800A4B4FF4C0621A81084B00225E
:104C10009A81074B0C225A81054800F04BF901227A
:104C200040F225510348FFF746FD00BF80BD00BF9D
:104C3000200300200038014080B500AF324B1B79C3
:104C4000022B0FD0022B12DC002B02D0012B04D040
:104C50000DE02E4B0022DA800DE02C4B4FF4405239
:104C6000DA8008E0294B4FF40052DA8003E0FFF7C6
:104C7000BDFF002346E0244B5B79022B0FD0022BB3
:104C800012DC002B02D0012B04D00DE01F4B0022C0
:104C90001A810DE01D4B4FF480621A8108E01B4B16
:104CA0004FF4C0621A8103E0FFF7A0FF002329E060
:104CB000154B9B79072B02D0082B04D010E0134B27
:104CC00000229A8010E0114B1B89002B03D10F4B5F
:104CD00000229A8008E00D4B4FF480529A8003E046
:104CE000FFF784FF00230DE0074B1B68074A1360A2
:104CF000064B00229A81054B0C225A81034800F092
:104D0000D9F80123184680BD84000020200300202C
:104D100080B584B000AF78600B46FB700023FB6069
:104D200012E07A68FB6813441B7819460B48FFF7BA
:104D300009FD00BF80210948FFF724FD0346002B31
:104D4000F8D0FB680133FB60FB78FA689A42E8D33D
:104D500000BF00BF1037BD4680BD00BF0038014016
:104D600080B582B000AF324B1B78012B5CD0314B49
:104D70001B68B3F5006F02D12E4B00221A602D4B39
:104D80001A682D4B1B689A4203D1294B00221A70D6
:104D90004AE0284B1A68284B1B689A4206D9254BD3
:104DA0001B68C3F50063254A136006E0224B1A68AE
:104DB000204B1B68D31A214A1360204B1B68402BE1
:104DC0000FD91C4B1B68FB804023BB80194B1B6811
:104DD0004033184A1360194B1B68403B174A136055
:104DE0000FE0144B1B68FB80144B1B68BB80114BFE
:104DF0001A68124B1B6813440E4A13600F4B0022B3
:104E00001A600B4B01221A70FB880D4A1344BA88B2
:104E1000A0211846FDF7A8F9BB8819460120FDF727
:104E200059FC0120FDF7C2FA0837BD4680BD00BF1E
:104E30003C0B0020340B0020300B0020380B0020EE
:104E40003003002080B500AF164B9B79072B0CD1A7
:104E50001548FFF788FC0346DAB2144B1B6802F0D2
:104E60007F02D1B2124AD1540DE00E4B9B79082B30
:104E700009D10D48FFF777FC03461A460B4B1B6818
:104E8000D1B20B4AD154094B1B680133074A136056
:104E9000064B1B68B3F5006F02D1044B00221A6069
:104EA00000BF80BD8400002000380140300B00208E
:104EB0003003002080B584B000AF7860012116482F
:104EC000FFF7C6FA01214FF48040FFF7C1FA4FF413
:104ED0000073BB811823FB730323BB7307F10C031F
:104EE00019460D48FFF78EF84FF48063BB81042309
:104EF000FB7307F10C0319460748FFF783F879683D
:104F00000648FFF7FFFA01210448FFF7B5FB00BF91
:104F10001037BD4680BD00BF000801400038014089
:104F200080B584B000AF0E4B1B68FB600D4B1B6857
:104F3000BB600D4B1B687B60FA68BB681344FB6069
:104F4000FA687B681344FB60FB68002B04D00822DE
:104F50000649F86800F00CF800BF1037BD4680BD68
:104F6000E8F7FF1FECF7FF1FF0F7FF1F1E00002000
:104F700080B487B000AFF860B9601346FB710023BE
:104F8000FB750023FB7527E0FB681B0F092B0BD873
:104F9000FB681B0FDAB2FB7D5B001946BB680B4454
:104FA0003032D2B21A700AE0FB681B0FDAB2FB7D16
:104FB0005B001946BB680B443732D2B21A70FB68EB
:104FC0001B01FB60FB7D5B000133BA6813440022C8
:104FD0001A70FB7D0133FB75FA7DFB799A42D3D3BE
:104FE00000BF00BF1C37BD4680BC704780B582B093
:104FF00000AF284B1B78002B40D0274B1B78012B90
:105000003FD1264B1B68002B03D1234B00221A7083
:1050100037E0224B1B68402B0FD9214B1B68FB80CC
:105020004023BB801E4B1B6840331D4A13601B4B43
:105030001B68403B194A13600FE0194B1B68FB804B
:10504000164B1B68BB80164B1A68144B1B68134425
:10505000134A1360114B00221A60FB88114A134453
:10506000BA88A0211846FDF77FF8BB8819460120B1
:10507000FDF730FB0120FDF799F902E00A4B012210
:105080001A7001210948FBF7E5FD00BF0837BD464E
:1050900080BD00BF100300203C0B0020380B002017
:1050A000340B0020300300200000002014030020F7
:1050B00080B582B000AF144B1B78002B19D0134978
:1050C0000220FDF72AFD0346FB804FF48071104853
:1050D000FFF76DF8FB88DBB219460C48FFF718FEA6
:1050E0004FF480710A48FFF770F80220FDF788F945
:1050F00002E0084B01221A7002210748FBF7AAFDC3
:1051000000BF0837BD4680BD10030020400B0020C3
:1051100000080140A00100201403002080B500AF6A
:10512000084B1B68052B0BD1074B1B685A1C064903
:105130000A60052B04D1044B00221A60FFF710FE11
:1051400000BF80BD8C0B0020800B002080B588B094
:1051500000AF1E4B1B689AB21D4B1A801C4B1B885C
:105160009BB203F400431B4A12881340002B01D06A
:10517000FCF702FE164B1B889BB203F48063154AB2
:1051800012881340002B06D0104B4FF6FF321A60E6
:10519000114B5B6898470E4B1B889BB203F400735E
:1051A0000C4A12881340002B0CD0084B4FF6FF52CC
:1051B0001A600A4B1B78DBB20133DAB2074B1A7064
:1051C000FFF7ACFF00BF2037BD4680BD445C004008
:1051D000840B00207801002090000020860B002026
:1051E00080B500AFFFF79CFE084B1B6800229A7247
:1051F00000F09EFAFDF754FCFDF7D2FFFFF7F6FC36
:10520000034B00221A6000BF80BD00BF7001002068
:105210008C0B002080B500AF514B1B6800229A72A6
:105220004F4B1B680022DA724E4B1B78002B02D0CA
:105230004D4BDB7901E04D4BDB79494A12685372E3
:105240000020FCF7F9FF4FF400710020FDF718F87B
:10525000444B1B78002B04D010210020FDF736F8BA
:1052600003E020210020FDF731F820210020FDF788
:10527000DBF960210020FDF7B5F90020FDF7EAF821
:105280003B4B93F82C3019460020FDF741FA0020E3
:10529000FDF7B6F800210120FCF7F2FFA021012064
:1052A000FDF7A0F92F4B1B78002B03D140210120E3
:1052B000FDF710FA20210120FDF708F80021012058
:1052C000FDF73CF84FF4C0610320FCF7D9FF4FF421
:1052D000C0710320FDF786F900210320FDF72EF8A9
:1052E00020210320FCF7F2FF00210220FCF7C8FF79
:1052F0001C4B1B78002B09D04FF4A0710220FDF746
:1053000093F940210220FDF703FA17E00220FDF790
:10531000C5F84FF4A0724FF480710220FDF758FADF
:10532000402201210220FDF789FA0220FDF7FFF853
:105330000220FDF729F90220FDF7D8F84FF440517B
:105340000220FCF7FBFF00210220FCF7BFFF00203A
:10535000FCF7ACFC074B01221A6000BF80BD00BF08
:105360007001002010030020E0570008AC5700082F
:10537000900000208C0B002080B400AF054B1B6810
:105380009B7A002B02D0044B05221A6000BFBD4659
:1053900080BC7047700100208C0B002080B400AFEF
:1053A000034B04221A6000BFBD4680BC704700BF9B
:1053B0008C0B002080B500AF054B1B78202B05D14E
:1053C000FFF73AFC024B00221A7000BF00BF80BDFD
:1053D000870B002080B400AF00BFBD4680BC704783
:1053E00080B584B000AF0346FB710023FB603F4BE8
:1053F0001B78002B20D0FB79212B09D13C4B1B685B
:105400001B7803F07F03212B11D13A4BFB600EE098
:10541000FB79202B0BD1364B1B681B7803F07F03E5
:10542000212B01D1344BFB60344B20221A70FB68D6
:10543000002B4BD1022355E02D4B1B681B7803F04A
:105440007F03402B3DD12A4B1B681B785BB2002B9E
:1054500035DAFB79052B20D0902B27D1244B1B6804
:105460009B881B0A9BB25B00DBB203F07E03FB72DE
:10547000FB7A1846FDF7B2FF0346DAB2204B1A70EA
:10548000FB7A0133DBB21846FDF7A8FF0346DAB218
:105490001B4B5A701B4BFB6013E0194B01221A7017
:1054A000174B60225A70174BFB600AE0144B002226
:1054B0001A70134B00225A70124BFB6001E002235A
:1054C00010E0FB68002B01D102230BE0084B1B68A6
:1054D000FA689A61064B1B6800225A82FB6800201A
:1054E0009847002318461037BD4680BD10030020A2
:1054F00070010020D156000801570008870B0020DA
:10550000880B0020A156000880B483B000AF03468A
:10551000FB711B4B1B78002B10D01A4B1B681B78A0
:1055200003F07F03212B24D1FB79022B01D100232F
:1055300020E0FB79222B1CD100231BE0114B1B68C0
:105540001B7803F07F03402B13D1FB79042B0DD87C
:1055500001A252F823F000BF6D5500086D550008F8
:105560006D5500086D5500086D55000800BF0023FB
:1055700000E0022318460C37BD4680BC704700BFD0
:10558000100300207001002080B582B000AF0346F8
:10559000FB800A4B1B78002B06D0FB880849184675
:1055A000FBF7E4FE034605E0FB8806491846FBF7D7
:1055B000DDFE034618460837BD4680BD10030020B7
:1055C00014010020E400002080B582B000AF034643
:1055D000FB800A4B1B78002B06D0FB880849184635
:1055E000FBF7C4FE034605E0FB8806491846FBF7B7
:1055F000BDFE034618460837BD4680BD1003002097
:105600001C010020EC00002080B584B000AF0346F0
:10561000FB80134B1B68DB78FB73FB7B042B01D9EE
:10562000002318E00F4B1B78002B0AD0FB7BDB001C
:105630000D4A1A44FB8811461846FBF797FE0346AD
:1056400009E0FB7BDB00094A1A44FB881146184637
:10565000FBF78CFE034618461037BD4680BD00BFE1
:10566000700100201003002024010020F40000201D
:1056700080B483B000AF03460A46FB711346BB718A
:10568000BB79002B01D0022305E0FB79012B01D966
:10569000022300E0002318460C37BD4680BC70474B
:1056A00080B483B000AF0346FB80FB88002B05D19C
:1056B000054B1B6802221A82002300E0034B1846A8
:1056C0000C37BD4680BC704770010020880B00205D
:1056D00080B483B000AF0346FB80FB88002B05D16C
:1056E000054B1B6808221A82002300E0034B184672
:1056F0000C37BD4680BC704770010020840000203C
:1057000080B483B000AF0346FB80FB88002B05D13B
:10571000054B1B6808221A82002300E0034B184641
:105720000C37BD4680BC704770010020840000200B
:1057300080B582B000AF0120FFF70EFA0123FB8095
:105740000C4AFB8813600C4B00221A800A4B1A8803
:10575000084B1A60094B00221A60074B4FF4E052C5
:105760001A80054B1A88034B1A6000231846083725
:10577000BD4680BD405C004078010020445C004094
:10578000F8B500BFF8BC08BC9E467047F8B500BF2E
:08579000F8BC08BC9E467047FE
:105798001201000200000040FB0901600004010240
:1057A800030100000902200001010080E109040052
:1057B8000002FFFFFF000705810240000107050204
:1057C8000240000112010002020000408304405719
:1057D800000201020301000009024300020100C0A7
:1057E800320904000001020201000524001001052D
:1057F8002401000104240202052406000107058390
:10580800030800FF09040100020A000000070581DF
:1058180002400000070502024000000004030904DA
:105828000E0341006C007400650072006100000006
:1058380018035500530042002D0042006C0061001F
:105848007300740065007200040309042603530002
:1058580054004D006900630072006F0065006C0021
:1058680065006300740072006F006E0069006300D9
:10587800730000003203530054004D00330032001F
:1058880020005600690072007400750061006C0009
:10589800200043004F004D00200050006F007200B0
:0858A800740020002000000044
:0458B00035010008B6
:0458B40011010008D6
:1058B80001000000000000000102030401020304CB
:1058C800060708090204060800A24A041203300069
:1058D8003000300030003000300030003000000070
:1058E8001A03530054004D0033003200000000003A
:1058F800000000000000000000000000ED4F00085C
:10590800291D0008291D0008291D0008291D000857
:10591800291D0008291D0008291D0008B15000088C
:10592800291D0008291D0008291D0008291D000837
:10593800291D000800C20100000008000401000041
:10594800E151000815520008B5530008D553000866
:10595800E1530008095500087156000889550008E8
:10596800C955000809560008000000004000000062
:10597800291D000879530008291D0008291D000861
:10598800291D0008291D0008291D0008291D0008D7
:105998009D5300089857000812000000AC570008F3
:1059A80020000000245800080400000028580008BF
:1059B8000E00000038580008180000001C000020E5
:1059C80012000000CC57000812000000E057000841
:1059D8004300000050580008040000005458000814
:1059E800260000007C58000832000000300000202B
:0459F8001A00000091
:040000050800487136
:00000001FF
